:100000000C942A000C9447000C949A0A0C94CD0A84
:100010000C9447000C9447000C9447000C94470044
:100020000C9447000C9447000C94C3080C9490085F
:100030000C9447000C9447000C9447000C94470024
:100040000C94D40F0C9447000C9447000C94470078
:100050000C94470011241FBECFE5D8E0DEBFCDBF12
:1000600010E0A0E6B0E0E6E7FDE302C005900D92E7
:10007000AC38B107D9F710E0ACE8B0E001C01D9290
:10008000A939B107E1F70E94251E0C94B91E0C9402
:100090000000EF92FF920F931F937B018C0120E0F1
:1000A00030E040E05FE40E94F50388238CF0C80153
:1000B000B70120E030E040E05FE40E94C1010E940F
:1000C00055049B01AC01205030404040504806C0D0
:1000D000C801B7010E9455049B01AC01B901CA01D6
:1000E0001F910F91FF90EF900895A0E0B0E0EBE733
:1000F000F0E00C94821EDC012B01FA019C919230FD
:1001000008F439C1EB018881823008F433C194309E
:1001100069F4843009F02FC111969C91119789815F
:10012000981709F428C1A0E6B0E025C1843009F48D
:1001300021C18230A9F4923009F01DC19A01AD01AC
:1001400088E0EA010990AE01E90109929E0181501F
:10015000C1F7E201898111969C918923818308C1AD
:10016000923009F407C112962D903C901397EB0141
:100170008A819B811496AD90BD90CD90DC901797AD
:10018000EC80FD800E811F819101281B390BB90184
:1001900037FF04C066277727621B730B6032710537
:1001A0000CF061C0121613066CF537014801062EDB
:1001B00004C096948794779467940A94D2F721E0C8
:1001C00030E040E050E004C0220F331F441F551FB1
:1001D0006A95D2F721503040404050402E213F21B7
:1001E00040235123211531054105510521F021E01E
:1001F00030E040E050E079018A01E628F72808293C
:1002000019293CC0232BD1F1260E371E350146019A
:10021000062E04C096948794779467940A94D2F734
:1002200021E030E040E050E004C0220F331F441FC3
:10023000551F6A95D2F721503040404050402A2146
:100240003B214C215D21211531054105510521F04E
:1002500021E030E040E050E059016A01A628B728CB
:10026000C828D9280BC0821593052CF01C01AA249C
:10027000BB24650103C0EE24FF24870111969C91E5
:10028000D20111968C91981709F445C0992339F041
:10029000A80197012A193B094C095D0906C0A6016E
:1002A00095012E193F09400B510B57FD08C01182D3
:1002B0003382228224833583468357831DC081E0A5
:1002C00081833382228288279927DC01821B930B4A
:1002D000A40BB50B84839583A683B7830DC0220F2F
:1002E000331F441F551F24833583468357838281E0
:1002F000938101979383828324813581468157813D
:10030000DA01C9010197A109B1098F5F9F4FAF4F72
:10031000BF4328F30BC0918333822282EA0CFB1C7B
:100320000C1D1D1DE482F5820683178383E0808304
:10033000248135814681578157FF1AC0C901AA27F8
:1003400097FDA095BA2F81709070A070B0705695EF
:10035000479537952795822B932BA42BB52B848318
:100360009583A683B7838281938101969383828349
:10037000DF0101C0D201CD01CDB7DEB7E2E10C94BF
:100380009E1EA0E2B0E0E7ECF1E00C948E1E6983C3
:100390007A838B839C832D833E834F835887E9E048
:1003A000EE2EF12CEC0EFD1ECE010196B7010E943F
:1003B0007E058E010F5E1F4FCE010596B8010E948B
:1003C0007E058A8991E089278A8BC701B801AE0131
:1003D000475E5F4F0E9475000E94A904A096E6E068
:1003E0000C94AA1EA0E2B0E0E8EFF1E00C948E1E9F
:1003F00069837A838B839C832D833E834F835887C5
:10040000F9E0EF2EF12CEC0EFD1ECE010196B701A6
:100410000E947E058E010F5E1F4FCE010596B8012A
:100420000E947E05C701B801AE01475E5F4F0E9482
:1004300075000E94A904A096E6E00C94AA1EA0E212
:10044000B0E0E5E2F2E00C94821E69837A838B834C
:100450009C832D833E834F835887CE010196BE0136
:10046000675F7F4F0E947E05CE010596BE016F5EDD
:100470007F4F0E947E059985923088F0898982306D
:10048000C8F0943019F4823051F404C0843029F457
:10049000923081F480E690E0C6C0923049F420E0CA
:1004A0009A858A89981321E02A87CE010996BBC0D4
:1004B000823049F420E09A858A89981321E02A8BBA
:1004C000CE014196B0C02D843E844F8458886D88FB
:1004D0007E888F88988CEE24FF248701AA24BB2471
:1004E000650140E050E060E070E0E0E0F0E0C10174
:1004F00081709070892BE9F0E60CF71C081D191D1E
:100500009A01AB012A0D3B1D4C1D5D1D80E090E062
:10051000A0E0B0E0E614F7040805190520F481E036
:1005200090E0A0E0B0E0BA01A901480F591F6A1F8E
:100530007B1FAA0CBB1CCC1CDD1C97FE08C081E0F5
:1005400090E0A0E0B0E0A82AB92ACA2ADB2A3196B6
:10055000E032F10549F0660C771C881C991C569412
:10056000479437942794C3CFFA85EA892B893C892D
:100570008B859C85280F391F2E5F3F4F17C0CA01FE
:1005800081709070892B61F016950795F794E79428
:1005900080E090E0A0E0B0E8E82AF92A0A2B1B2BC3
:1005A00076956795579547952F5F3F4F77FDE7CF36
:1005B0000CC0440F551F661F771F17FD4160EE0CDE
:1005C000FF1C001F111F21503040403090E05907A0
:1005D00090E0690790E4790760F32B8F3C8FDB0193
:1005E000CA018F779070A070B07080349105A1051A
:1005F000B10561F447FD0AC0E114F10401051105DC
:1006000029F0405C5F4F6F4F7F4F40781A8EFE1786
:1006100011F081E08A8F4D8F5E8F6F8F78A383E01A
:10062000898FCE0149960E94A904A096E2E10C941C
:100630009E1EA8E1B0E0EFE1F3E00C948A1E69830E
:100640007A838B839C832D833E834F835887B9E0C5
:10065000EB2EF12CEC0EFD1ECE010196B7010E948F
:100660007E058E010F5E1F4FCE010596B8010E94D8
:100670007E052985223008F47EC03989323010F495
:10068000B8017CC08A859A8989278A87243011F02D
:10069000223031F4231709F06EC060E670E06EC0BE
:1006A000343039F41D861E861F86188A1C861B86E8
:1006B00004C0323021F484E08987B7015FC02B8504
:1006C0003C858B899C89281B390B3C872B87ED84C3
:1006D000FE840F851889AD88BE88CF88D88CEA142F
:1006E000FB040C051D0540F4EE0CFF1C001F111F40
:1006F000215030403C872B8720E030E040E050E044
:1007000080E090E0A0E0B0E460E070E0EA14FB0478
:100710000C051D0540F0282B392B4A2B5B2BEA18C2
:10072000FB080C091D09B695A79597958795EE0CC2
:10073000FF1C001F111F6F5F7F4F6F31710531F775
:10074000DA01C9018F779070A070B0708034910584
:10075000A105B10561F427FD0AC0E114F10401050A
:10076000110529F0205C3F4F4F4F5F4F20782D87B8
:100770003E874F87588BBE01675F7F4FCB010E943A
:10078000A9046896EAE00C94A61EA8E1B0E0EBECA0
:10079000F3E00C948E1E69837A838B839C832D8374
:1007A0003E834F83588789E0E82EF12CEC0EFD1E26
:1007B000CE010196B7010E947E058E010F5E1F4F8C
:1007C000CE010596B8010E947E058985823040F0F1
:1007D0008989823028F0C701B8010E94F60501C05E
:1007E0008FEF6896E6E00C94AA1EA8E1B0E0EBEF6C
:1007F000F3E00C948E1E69837A838B839C832D8314
:100800003E834F83588789E0E82EF12CEC0EFD1EC5
:10081000CE010196B7010E947E058E010F5E1F4F2B
:10082000CE010596B8010E947E058985823040F090
:100830008989823028F0C701B8010E94F60501C0FD
:100840008FEF6896E6E00C94AA1EA8E1B0E0EBE218
:10085000F4E00C948E1E69837A838B839C832D83B2
:100860003E834F83588789E0E82EF12CEC0EFD1E65
:10087000CE010196B7010E947E058E010F5E1F4FCB
:10088000CE010596B8010E947E058985823040F030
:100890008989823028F0C701B8010E94F60501C09D
:1008A00081E06896E6E00C94AA1EACE0B0E0EBE5CF
:1008B000F4E00C94921E69837A838B839C83CE012F
:1008C0000196BE016B5F7F4F0E947E058D81823055
:1008D00061F1823050F1843021F48E81882351F10E
:1008E0002EC02F81388537FD20C06E812F31310514
:1008F0001CF06623F9F023C08EE190E0821B930B7D
:1009000029853A854B855C8504C056954795379572
:1009100027958A95D2F76623B1F05095409530958A
:1009200021953F4F4F4F5F4F0EC020E030E040E039
:1009300050E009C02FEF3FEF4FEF5FE704C020E02A
:1009400030E040E050E8B901CA012C96E2E00C9496
:10095000AE1EDF92EF92FF920F931F93FC01E48093
:10096000F58006811781D1808081823048F480E053
:1009700090E0A0E1B0E0E82AF92A0A2B1B2BA5C0E1
:10098000843009F49FC0823021F4EE24FF248701D3
:1009900005C0E114F1040105110519F4E0E0F0E0EF
:1009A00096C0628173819FEF623879070CF05BC05B
:1009B00022E83FEF261B370B2A3131052CF020E0CF
:1009C00030E040E050E02AC0B801A701022E04C088
:1009D00076956795579547950A94D2F781E090E010
:1009E000A0E0B0E004C0880F991FAA1FBB1F2A9582
:1009F000D2F70197A109B1098E219F21A023B1232C
:100A00000097A105B10521F081E090E0A0E0B0E001
:100A10009A01AB01282B392B4A2B5B2BDA01C90138
:100A20008F779070A070B07080349105A105B105EA
:100A300039F427FF09C0205C3F4F4F4F5F4F04C080
:100A4000215C3F4F4F4F5F4FE0E0F0E02030A0E0EF
:100A50003A07A0E04A07A0E45A0710F0E1E0F0E00E
:100A600079018A0127C06038710564F5FB01E158FE
:100A7000FF4FD801C7018F779070A070B07080349D
:100A80009105A105B10539F4E7FE0DC080E490E0C1
:100A9000A0E0B0E004C08FE390E0A0E0B0E0E80E9A
:100AA000F91E0A1F1B1F17FF05C016950795F7941F
:100AB000E794319687E016950795F794E7948A9521
:100AC000D1F705C0EE24FF248701EFEFF0E06E2F91
:100AD000679566276795902F9F77D794DD24D794E5
:100AE0008E2F8695492F462B582F5D29B701CA01B5
:100AF0001F910F91FF90EF90DF900895FC01DB01B3
:100B0000408151812281622F6F7770E0221F22275E
:100B1000221F9381892F880F822B282F30E0991F65
:100B20009927991F11969C93119721153105A9F5C5
:100B3000411551056105710511F482E037C082E865
:100B40009FEF13969C938E9312979A01AB0167E0E7
:100B5000220F331F441F551F6A95D1F783E08C93F2
:100B60000DC0220F331F441F551F12968D919C916B
:100B70001397019713969C938E931297203080E0E1
:100B8000380780E0480780E4580758F314962D93FF
:100B90003D934D935C93179708952F3F310579F45A
:100BA000411551056105710519F484E08C93089590
:100BB00064FF03C081E08C9312C01C9210C02F57B9
:100BC000304013963C932E93129783E08C9387E0EA
:100BD000440F551F661F771F8A95D1F770641496CE
:100BE0004D935D936D937C93179708951F93DC014C
:100BF000FB019C91923008F447C08081823008F458
:100C000043C0943051F411961C91843099F5818140
:100C1000682F70E0611B71093FC0843021F0923071
:100C200031F48230B9F18181882389F12DC0119688
:100C30001C9111978230F1F081811817D9F4129626
:100C40002D913C911397828193818217930794F0A1
:100C500028173907BCF014968D919D910D90BC9189
:100C6000A02D2481358146815781281739074A07ED
:100C70005B0718F4112341F00AC082179307A407F9
:100C8000B50740F4112319F061E070E005C06FEF83
:100C90007FEF02C060E070E0CB011F910895DF9309
:100CA000CF930F92CDB7DEB78983E1E4F0E089817D
:100CB0008083A1E4B0E0E1E4F0E0808188608C937F
:100CC0000F90CF91DF910895DF93CF93CDB7DEB72B
:100CD000A1E4B0E0E1E4F0E0808180618C93E1E4A4
:100CE000F0E01082CF91DF910895DF93CF9300D091
:100CF00000D000D0CDB7DEB79A838983E981FA812D
:100D00008081882F90E0009709F0F2C0E981FA8194
:100D10008181282F30E03E832D838D819E8181301B
:100D2000910509F467C02D813E81223031052CF4F4
:100D30008D819E81009769F088C02D813E8122308F
:100D40003105B1F18D819E818330910509F468C030
:100D50007CC0A3E5B0E0E3E5F0E0808180688C939F
:100D6000A3E5B0E0E3E5F0E080818F7B8C93A3E521
:100D7000B0E0E3E5F0E08081877F8C93E981FA8140
:100D80008481282F30E03C832B838B819C810097CA
:100D900009F45BC02B813C812130310509F055C03D
:100DA000A9E5B0E0E9E5F0E0808181608C934DC079
:100DB000A3E5B0E0E3E5F0E0808180688C93A3E5F3
:100DC000B0E0E3E5F0E080818F7B8C93A3E5B0E0B9
:100DD000E3E5F0E0808188608C93E981FA81848189
:100DE000813099F5A9E5B0E0E9E5F0E08081826025
:100DF0008C932BC0A3E5B0E0E3E5F0E080818F7732
:100E00008C93A3E5B0E0E3E5F0E0808180648C930F
:100E1000A3E5B0E0E3E5F0E08081877F8C9315C027
:100E2000A3E5B0E0E3E5F0E080818F778C93A3E564
:100E3000B0E0E3E5F0E0808180648C93A3E5B0E06E
:100E4000E3E5F0E0808188608C93A3E5B0E0E3E522
:100E5000F0E080818F7C8C93E981FA8182818130FE
:100E6000F1F4E981FA818181833061F1E981FA81CC
:100E70008181813039F1A3E5B0E0E3E5F0E08081E4
:100E8000282FE981FA818281882F90E082959295BE
:100E9000907F9827807F9827822B8C9313C0A3E59F
:100EA000B0E0E3E5F0E08081282FE981FA818281DA
:100EB000882F90E082959295907F9827807F982741
:100EC000822B8C93A3E5B0E0E3E5F0E08081887F9E
:100ED0008C93A3E5B0E0E3E5F0E08081982FE98111
:100EE000FA8183818770892B8C93E2E5F0E0108290
:100EF00026960FB6F894DEBF0FBECDBFCF91DF911F
:100F00000895DF93CF9300D000D0CDB7DEB79A839A
:100F10008983E981FA818181282F30E03C832B830A
:100F20008B819C818230910551F12B813C81233052
:100F3000310509F449C08B819C81009709F04CC0B0
:100F4000A2E5B0E0E981FA8185818C93E981FA819B
:100F50008481882F90E0009709F03EC0E8E5F0E03A
:100F60008081882F90E0817090700097B9F3A8E598
:100F7000B0E0E8E5F0E0808181608C932DC0A2E5CF
:100F8000B0E0E981FA8185818C93ACE5B0E0E9813C
:100F9000FA8186818C93E981FA818481882F90E09F
:100FA0000097D1F4E8E5F0E080818695882F90E005
:100FB000817090700097B1F3A8E5B0E0E8E5F0E04B
:100FC000808182608C9308C0ECE5F0E0A981BA8151
:100FD00016968C91169780830F900F900F900F901C
:100FE000CF91DF910895DF93CF930F92CDB7DEB706
:100FF0008983E2E5F0E0898180830F90CF91DF91D2
:101000000895DF93CF9300D0CDB7DEB79A8389835D
:10101000E2E5F0E08081E981FA8180830F900F9012
:10102000CF91DF910895DF93CF930F92CDB7DEB7C5
:101030008983ECE5F0E0898180830F90CF91DF9187
:101040000895DF93CF93CDB7DEB7A9E5B0E0E9E52A
:10105000F0E0808181608C93CF91DF910895DF93E0
:10106000CF93CDB7DEB7A9E5B0E0E9E5F0E0808148
:101070008E7F8C93CF91DF910895DF93CF93CDB77F
:10108000DEB7A9E5B0E0E9E5F0E0808182608C930D
:10109000CF91DF910895DF93CF93CDB7DEB7A9E568
:1010A000B0E0E9E5F0E080818D7F8C93CF91DF9116
:1010B0000895DF93CF93CDB7DEB7E3E5F0E010827C
:1010C000E2E5F0E01082ECE5F0E01082A9E5B0E0A6
:1010D000E9E5F0E080818C7F8C93CF91DF910895DA
:1010E000DF93CF93CDB7DEB7A0E5B0E0E0E5F0E069
:1010F000808181608C93CF91DF910895DF93CF93AE
:1011000000D0CDB7DEB79A83898389819A81909385
:101110008D0080938C000F900F90CF91DF910895F8
:101120001F920F920FB60F9211242F933F934F935C
:101130005F936F937F938F939F93AF93BF93EF933F
:10114000FF93DF93CF93CDB7DEB780918C00909162
:101150008D00009729F0E0918C00F0918D000995A9
:10116000CF91DF91FF91EF91BF91AF919F918F91BF
:101170007F916F915F914F913F912F910F900FBE93
:101180000F901F9018951F920F920FB60F92112477
:101190002F933F934F935F936F937F938F939F937F
:1011A000AF93BF93EF93FF93DF93CF93CDB7DEB7AA
:1011B00080918C0090918D00009729F0E0918C0037
:1011C000F0918D000995CF91DF91FF91EF91BF9143
:1011D000AF919F918F917F916F915F914F913F91CF
:1011E0002F910F900FBE0F901F901895DF93CF9304
:1011F000CDB7DEB7AFE5B0E0EFE5F0E08081806825
:101200008C93CF91DF910895DF93CF93CDB7DEB765
:10121000AFE5B0E0EFE5F0E080818F778C93CF9180
:10122000DF910895DF93CF93CDB7DEB72A970FB63E
:10123000F894DEBF0FBECDBF89836A838981282FD2
:1012400030E03A87298789859A858130910509F4AC
:1012500066C029853A852230310509F4BBC08985ED
:101260009A85009709F0D4C08A81282F30E038870A
:101270002F838F8198858130910521F12F813885C9
:10128000223031052CF48F819885009761F0C0C021
:101290002F8138852230310599F18F8198858330EF
:1012A0009105F9F0B5C0A5E5B0E0E5E5F0E0808195
:1012B00082608C93A5E5B0E0E5E5F0E08081816097
:1012C0008C93A6C0A5E5B0E0E5E5F0E08081826002
:1012D0008C93A5E5B0E0E5E5F0E080818E7F8C930E
:1012E00097C0A5E5B0E0E5E5F0E0808181608C93F2
:1012F000A5E5B0E0E5E5F0E080818D7F8C9388C0C6
:10130000A5E5B0E0E5E5F0E080818D7F8C93A5E573
:10131000B0E0E5E5F0E080818E7F8C9379C08A8132
:10132000282F30E03E832D838D819E818130910571
:1013300021F12D813E81223031052CF48D819E8159
:10134000009761F065C02D813E812230310599F111
:101350008D819E8183309105F9F05AC0A5E5B0E0FA
:10136000E5E5F0E0808188608C93A5E5B0E0E5E5F7
:10137000F0E0808184608C934BC0A5E5B0E0E5E5AA
:10138000F0E0808188608C93A5E5B0E0E5E5F0E0D1
:1013900080818B7F8C933CC0A5E5B0E0E5E5F0E073
:1013A0008081877F8C93A5E5B0E0E5E5F0E0808162
:1013B00084608C932DC0A5E5B0E0E5E5F0E0808188
:1013C000877F8C93A5E5B0E0E5E5F0E080818B7F39
:1013D0008C931EC08A81282F30E03C832B838B8125
:1013E0009C81009731F02B813C812130310549F0FF
:1013F0000FC0A4E5B0E0E4E5F0E0808180648C9368
:1014000007C0A4E5B0E0E4E5F0E080818F7B8C9339
:101410002A960FB6F894DEBF0FBECDBFCF91DF91F5
:101420000895DF93CF9300D00F92CDB7DEB78983B5
:101430008981282F30E03B832A838A819B818130F8
:10144000910589F02A813B8122303105A1F08A8102
:101450009B810097B9F4ABE5B0E0EBE5F0E080816B
:1014600080648C930FC0ABE5B0E0EBE5F0E08081E9
:1014700080688C9307C0ABE5B0E0EBE5F0E08081DD
:1014800080628C930F900F900F90CF91DF91089511
:10149000DF93CF9300D00F92CDB7DEB789838981D8
:1014A000282F30E03B832A838A819B8181309105FC
:1014B00089F02A813B8122303105A1F08A819B810C
:1014C0000097B9F4ABE5B0E0EBE5F0E080818F7B0D
:1014D0008C930FC0ABE5B0E0EBE5F0E080818F7757
:1014E0008C9307C0ABE5B0E0EBE5F0E080818F7D49
:1014F0008C930F900F900F90CF91DF910895DF9311
:10150000CF9300D00F92CDB7DEB789837B836A83F8
:101510008981882F90E0880F991FFC01E257FF4FC7
:101520008A819B81918380830F900F900F90CF9140
:10153000DF9108951F920F920FB60F9211242F93EF
:101540003F934F935F936F937F938F939F93AF934B
:10155000BF93EF93FF93DF93CF93CDB7DEB7809127
:10156000900090919100009729F0E0919000F09107
:1015700091000995CF91DF91FF91EF91BF91AF91CC
:101580009F918F917F916F915F914F913F912F919B
:101590000F900FBE0F901F9018951F920F920FB6CD
:1015A0000F9211242F933F934F935F936F937F93E9
:1015B0008F939F93AF93BF93EF93FF93DF93CF935B
:1015C000CDB7DEB78091920090919300009729F0FB
:1015D000E0919200F09193000995CF91DF91FF91F6
:1015E000EF91BF91AF919F918F917F916F915F919B
:1015F0004F913F912F910F900FBE0F901F90189514
:10160000DF93CF93CDB7DEB729970FB6F894DEBF3F
:101610000FBECDBF89836A834B838B81282F30E037
:101620003987288788859985009739F028853985F5
:101630002130310509F475C0E2C08981282F30E0DE
:101640003F832E838E819F818130910559F12E81B8
:101650003F81223031052CF48E819F81009769F003
:10166000CEC02E813F812230310589F18E819F814C
:101670008330910509F440C0C2C0AAE3B0E0EAE3B8
:10168000F0E08081482F8A81282F30E081E090E0CF
:10169000022E02C0880F991F0A94E2F780958423D6
:1016A0008C93ADC0A7E3B0E0E7E3F0E08081482F82
:1016B0008A81282F30E081E090E0022E02C0880F5E
:1016C000991F0A94E2F7809584238C9398C0A4E331
:1016D000B0E0E4E3F0E08081482F8A81282F30E0F9
:1016E00081E090E0022E02C0880F991F0A94E2F771
:1016F000809584238C9383C0A1E3B0E0E1E3F0E024
:101700008081482F8A81282F30E081E090E0022EEE
:1017100002C0880F991F0A94E2F7809584238C9366
:101720006EC08981282F30E03D832C838C819D8180
:101730008130910549F12C813D81223031052CF415
:101740008C819D81009761F05AC02C813D812230AF
:10175000310571F18C819D8183309105E9F14FC094
:10176000AAE3B0E0EAE3F0E08081482F8A81282FE5
:1017700030E081E090E0022E02C0880F991F0A94A9
:10178000E2F7842B8C933BC0A7E3B0E0E7E3F0E003
:101790008081482F8A81282F30E081E090E0022E5E
:1017A00002C0880F991F0A94E2F7842B8C9327C0FC
:1017B000A4E3B0E0E4E3F0E08081482F8A81282FA1
:1017C00030E081E090E0022E02C0880F991F0A9459
:1017D000E2F7842B8C9313C0A1E3B0E0E1E3F0E0E7
:1017E0008081482F8A81282F30E081E090E0022E0E
:1017F00002C0880F991F0A94E2F7842B8C932996D4
:101800000FB6F894DEBF0FBECDBFCF91DF91089524
:10181000DF93CF93CDB7DEB729970FB6F894DEBF2D
:101820000FBECDBF89836A834B838B81282F30E025
:101830003987288788859985009739F028853985E3
:101840002130310509F475C0E2C08981282F30E0CC
:101850003F832E838E819F818130910559F12E81A6
:101860003F81223031052CF48E819F81009769F0F1
:10187000CEC02E813F812230310589F18E819F813A
:101880008330910509F440C0C2C0ABE3B0E0EBE3A4
:10189000F0E08081482F8A81282F30E081E090E0BD
:1018A000022E02C0880F991F0A94E2F780958423C4
:1018B0008C93ADC0A8E3B0E0E8E3F0E08081482F6E
:1018C0008A81282F30E081E090E0022E02C0880F4C
:1018D000991F0A94E2F7809584238C9398C0A5E31E
:1018E000B0E0E5E3F0E08081482F8A81282F30E0E6
:1018F00081E090E0022E02C0880F991F0A94E2F75F
:10190000809584238C9383C0A2E3B0E0E2E3F0E00F
:101910008081482F8A81282F30E081E090E0022EDC
:1019200002C0880F991F0A94E2F7809584238C9354
:101930006EC08981282F30E03D832C838C819D816E
:101940008130910549F12C813D81223031052CF403
:101950008C819D81009761F05AC02C813D8122309D
:10196000310571F18C819D8183309105E9F14FC082
:10197000ABE3B0E0EBE3F0E08081482F8A81282FD1
:1019800030E081E090E0022E02C0880F991F0A9497
:10199000E2F7842B8C933BC0A8E3B0E0E8E3F0E0EF
:1019A0008081482F8A81282F30E081E090E0022E4C
:1019B00002C0880F991F0A94E2F7842B8C9327C0EA
:1019C000A5E3B0E0E5E3F0E08081482F8A81282F8D
:1019D00030E081E090E0022E02C0880F991F0A9447
:1019E000E2F7842B8C9313C0A2E3B0E0E2E3F0E0D3
:1019F0008081482F8A81282F30E081E090E0022EFC
:101A000002C0880F991F0A94E2F7842B8C932996C1
:101A10000FB6F894DEBF0FBECDBFCF91DF91089512
:101A2000DF93CF9300D000D00F92CDB7DEB78A837B
:101A30006B838FEF89838A81282F30E03D832C834D
:101A40004C815D814130510541F18C819D81823015
:101A5000910534F42C813D812115310561F052C08E
:101A60004C815D814230510551F18C819D818330E3
:101A70009105B9F147C0E9E3F0E08081282F30E01B
:101A80008B81882F90E0A90102C0559547958A95D2
:101A9000E2F7CA018170898335C0E6E3F0E0808116
:101AA000282F30E08B81882F90E0A90102C0559546
:101AB00047958A95E2F7CA018170898323C0E3E3E1
:101AC000F0E08081282F30E08B81882F90E0A90101
:101AD00002C0559547958A95E2F7CA0181708983BE
:101AE00011C0E0E3F0E08081282F30E08B81882F67
:101AF00090E0A90102C0559547958A95E2F7CA0181
:101B00008170898389810F900F900F900F900F90B3
:101B1000CF91DF910895DF93CF93CDB7DEB72897AC
:101B20000FB6F894DEBF0FBECDBF89836A838A816A
:101B3000282F30E038872F838F819885009731F0E8
:101B40002F8138852130310581F161C08981282FAD
:101B500030E03E832D838D819E8181309105C9F0D7
:101B60002D813E81223031052CF48D819E8100979C
:101B700061F04DC02D813E812230310571F08D81A3
:101B80009E818330910569F042C0EAE3F0E0108263
:101B90003EC0E7E3F0E010823AC0E4E3F0E01082F8
:101BA00036C0E1E3F0E0108232C08981282F30E0B6
:101BB0003C832B838B819C8181309105D1F02B81DB
:101BC0003C81223031052CF48B819C81009761F09F
:101BD0001EC02B813C812230310581F08B819C819C
:101BE0008330910581F013C0EAE3F0E08FEF80834A
:101BF0000EC0E7E3F0E08FEF808309C0E4E3F0E09C
:101C00008FEF808304C0E1E3F0E08FEF80832896BC
:101C10000FB6F894DEBF0FBECDBFCF91DF91089510
:101C2000DF93CF9300D000D0CDB7DEB789836A832E
:101C30008981282F30E03C832B838B819C818130EC
:101C40009105D1F02B813C81223031052CF48B8120
:101C50009C81009761F01EC02B813C8122303105B0
:101C600081F08B819C818330910581F013C0EBE37F
:101C7000F0E08A8180830EC0E8E3F0E08A8180830F
:101C800009C0E5E3F0E08A81808304C0E2E3F0E08C
:101C90008A8180830F900F900F900F90CF91DF91EA
:101CA0000895DF93CF9300D000D0CDB7DEB78A83FD
:101CB0008FEF89838A81282F30E03C832B838B81AF
:101CC0009C8181309105D1F02B813C8122303105FE
:101CD0002CF48B819C81009761F01EC02B813C818C
:101CE0002230310581F08B819C818330910581F018
:101CF00013C0E9E3F0E0808189830EC0E6E3F0E001
:101D00008081898309C0E3E3F0E08081898304C096
:101D1000E0E3F0E08081898389810F900F900F903C
:101D20000F90CF91DF910895DF93CF9300D0CDB77F
:101D3000DEB79A838983A7E2B0E0E7E2F0E0808132
:101D40008F738C93A7E2B0E0E7E2F0E08081282F68
:101D5000E981FA818081882F90E00024969587950B
:101D60000794969587950794982F802D822B8C93B6
:101D7000A6E2B0E0E6E2F0E08081887F8C93A6E204
:101D8000B0E0E6E2F0E09081E981FA818181892B7F
:101D90008C93A6E2B0E0E6E2F0E0808180688C936C
:101DA000A6E2B0E0E6E2F0E08081877F8C930F90BE
:101DB0000F90CF91DF910895DF93CF9300D00F92D2
:101DC000CDB7DEB78B831A821982A7E2B0E0E7E2D3
:101DD000F0E08081807E8C93A7E2B0E0E7E2F0E063
:101DE00090818B81892B8C93A6E2B0E0E6E2F0E053
:101DF000808180648C93E6E2F0E0808182958F7030
:101E0000882F90E0817090700097A9F3A6E2B0E06F
:101E1000E6E2F0E0808180618C93E4E2F0E0808192
:101E2000882F90E09A838983E5E2F0E08081882F13
:101E300090E0382F222789819A81822B932B9A83D5
:101E4000898389819A810F900F900F90CF91DF91B4
:101E50000895DF93CF93CDB7DEB7A6E2B0E0E6E218
:101E6000F0E0808188608C93CF91DF910895DF93BB
:101E7000CF93CDB7DEB7A6E2B0E0E6E2F0E0808136
:101E8000877F8C93CF91DF910895DF93CF930F924B
:101E9000CDB7DEB78983A0E5B0E0E0E5F0E0808172
:101EA0008F708C93A0E5B0E0E0E5F0E08081282F12
:101EB0008981882F90E0880F991F82959295907F55
:101EC0009827807F9827822B8C93A6E2B0E0E6E2E9
:101ED000F0E0808180628C93A6E2B0E0E6E2F0E080
:101EE000808180688C93A6E2B0E0E6E2F0E0808139
:101EF00080648C930F90CF91DF910895DF93CF93FF
:101F00000F92CDB7DEB78983A7E2B0E0E7E2F0E059
:101F10008081807E8C93A7E2B0E0E7E2F0E09081E0
:101F20008981892B8C930F90CF91DF910895DF9356
:101F3000CF9300D000D0CDB7DEB79C838B831A82BD
:101F40001982E4E2F0E08081882F90E09A8389830F
:101F5000E5E2F0E08081882F90E0382F2227898108
:101F60009A81822B932B9A838983EB81FC818981CF
:101F70009A81918380830F900F900F900F90CF9153
:101F8000DF910895DF93CF9300D0CDB7DEB79A836A
:101F9000898389819A8190939500809394000F9012
:101FA0000F90CF91DF9108951F920F920FB60F926D
:101FB00011242F933F934F935F936F937F938F934E
:101FC0009F93AF93BF93EF93FF93DF93CF93CDB7DF
:101FD000DEB78091940090919500009729F0E091F0
:101FE0009400F09195000995CF91DF91FF91EF91C9
:101FF000BF91AF919F918F917F916F915F914F9121
:102000003F912F910F900FBE0F901F901895DF9367
:10201000CF93CDB7DEB781E060E041E00E94000BD6
:1020200081E061E041E00E94000B81E062E041E07C
:102030000E94000B81E063E041E00E94000BCF9121
:10204000DF910895DF93CF93CDB7DEB7EC970FB64E
:10205000F894DEBF0FBECDBF9CAF8BAF1AAE19AEEA
:102060001DC281E060E041E00E94080C81E061E077
:1020700040E00E94080C81E062E040E00E94080C11
:1020800081E063E040E00E94080C80E090E0A0E284
:10209000B1E48DAB9EABAFABB8AF6DA97EA98FA9F4
:1020A00098AD20E030E04AEF54E40E941F02DC01CA
:1020B000CB0189AB9AABABABBCAB69A97AA98BA9B5
:1020C0009CA920E030E040E85FE30E9425048823DB
:1020D0002CF481E090E098AB8FA73FC069A97AA962
:1020E0008BA99CA920E03FEF4FE757E40E94C5036E
:1020F00018164CF56DA97EA98FA998AD20E030E0A7
:1021000040E251E40E941F02DC01CB01BC01CD0181
:102110000E944900DC01CB0198AB8FA70FC088EC6F
:1021200090E09EA78DA78DA59EA50197F1F79EA78C
:102130008DA78FA598A9019798AB8FA78FA598A970
:10214000009769F714C069A97AA98BA99CA90E9474
:102150004900DC01CB0198AB8FA78FA598A99CA75C
:102160008BA78BA59CA50197F1F79CA78BA781E076
:1021700060E040E00E94080C81E061E041E00E94E4
:10218000080C81E062E040E00E94080C81E063E01E
:1021900040E00E94080C80E090E0A0E2B1E48FA350
:1021A00098A7A9A7BAA76FA178A589A59AA520E0A5
:1021B00030E04AEF54E40E941F02DC01CB018BA304
:1021C0009CA3ADA3BEA36BA17CA18DA19EA120E089
:1021D00030E040E85FE30E94250488232CF481E08E
:1021E00090E09AA389A33FC06BA17CA18DA19EA181
:1021F00020E03FEF4FE757E40E94C50318164CF567
:102200006FA178A589A59AA520E030E040E251E4CD
:102210000E941F02DC01CB01BC01CD010E944900DC
:10222000DC01CB019AA389A30FC088EC90E098A3AE
:102230008F8F8F8D98A10197F1F798A38F8F89A128
:102240009AA101979AA389A389A19AA1009769F7F6
:1022500014C06BA17CA18DA19EA10E944900DC014C
:10226000CB019AA389A389A19AA19E8F8D8F8D8D71
:102270009E8D0197F1F79E8F8D8F81E060E040E0A9
:102280000E94080C81E061E040E00E94080C81E0BF
:1022900062E041E00E94080C81E063E040E00E94BF
:1022A000080C80E090E0A0E2B1E4898F9A8FAB8FB8
:1022B000BC8F698D7A8D8B8D9C8D20E030E04AEF4C
:1022C00054E40E941F02DC01CB018D8B9E8BAF8BEF
:1022D000B88F6D897E898F89988D20E030E040E845
:1022E0005FE30E94250488232CF481E090E09C8B1E
:1022F0008B8B3FC06D897E898F89988D20E03FEF61
:102300004FE757E40E94C50318164CF5698D7A8D86
:102310008B8D9C8D20E030E040E251E40E941F0252
:10232000DC01CB01BC01CD010E944900DC01CB01E5
:102330009C8B8B8B0FC088EC90E09A8B898B898962
:102340009A890197F1F79A8B898B8B899C890197E0
:102350009C8B8B8B8B899C89009769F714C06D8946
:102360007E898F89988D0E944900DC01CB019C8B6E
:102370008B8B8B899C89988B8F878F859889019708
:10238000F1F7988B8F8781E060E040E00E94080CB5
:1023900081E061E040E00E94080C81E062E040E002
:1023A0000E94080C81E063E041E00E94080C80E09C
:1023B00090E0A0E2B1E48B879C87AD87BE876B85F8
:1023C0007C858D859E8520E030E04AEF54E40E94B4
:1023D0001F02DC01CB018F839887A987BA876F81A1
:1023E000788589859A8520E030E040E85FE30E94A7
:1023F000250488232CF481E090E09E838D833FC0E8
:102400006F81788589859A8520E03FEF4FE757E413
:102410000E94C50318164CF56B857C858D859E85BD
:1024200020E030E040E251E40E941F02DC01CB01D9
:10243000BC01CD010E944900DC01CB019E838D834C
:102440000FC088EC90E09C838B838B819C810197EB
:10245000F1F79C838B838D819E8101979E838D8371
:102460008D819E81009769F714C06F817885898579
:102470009A850E944900DC01CB019E838D838D816A
:102480009E819A83898389819A810197F1F79A8342
:10249000898389AD9AAD01969AAF89AF8BAD9CAD1A
:1024A0000024969587950794969587950794982F7D
:1024B000802D2DE230E0B9010E946E1ECB019C01FF
:1024C00089AD9AAD8217930708F4CBCDEC960FB681
:1024D000F894DEBF0FBECDBFCF91DF910895DF939B
:1024E000CF93CDB7DEB7EC970FB6F894DEBF0FBE33
:1024F000CDBF9CAF8BAF1AAE19AE1DC281E060E0BC
:1025000041E00E94080C81E061E041E00E94080C7B
:1025100081E062E041E00E94080C81E063E040E07D
:102520000E94080C80E090E0A0E2B1E48DAB9EAB8D
:10253000AFABB8AF6DA97EA98FA998AD20E030E010
:102540004AEF54E40E941F02DC01CB0189AB9AAB35
:10255000ABABBCAB69A97AA98BA99CA920E030E000
:1025600040E85FE30E94250488232CF481E090E09A
:1025700098AB8FA73FC069A97AA98BA99CA920E035
:102580003FEF4FE757E40E94C50318164CF56DA9BD
:102590007EA98FA998AD20E030E040E251E40E948E
:1025A0001F02DC01CB01BC01CD010E944900DC010E
:1025B000CB0198AB8FA70FC088EC90E09EA78DA7AA
:1025C0008DA59EA50197F1F79EA78DA78FA598A928
:1025D000019798AB8FA78FA598A9009769F714C0AA
:1025E00069A97AA98BA99CA90E944900DC01CB01A9
:1025F00098AB8FA78FA598A99CA78BA78BA59CA507
:102600000197F1F79CA78BA781E060E041E00E9471
:10261000080C81E061E041E00E94080C81E062E08A
:1026200040E00E94080C81E063E041E00E94080C59
:1026300080E090E0A0E2B1E48FA398A7A9A7BAA791
:102640006FA178A589A59AA520E030E04AEF54E46F
:102650000E941F02DC01CB018BA39CA3ADA3BEA3F0
:102660006BA17CA18DA19EA120E030E040E85FE35A
:102670000E94250488232CF481E090E09AA389A38A
:102680003FC06BA17CA18DA19EA120E03FEF4FE751
:1026900057E40E94C50318164CF56FA178A589A5CB
:1026A0009AA520E030E040E251E40E941F02DC01E4
:1026B000CB01BC01CD010E944900DC01CB019AA3F2
:1026C00089A30FC088EC90E098A38F8F8F8D98A17D
:1026D0000197F1F798A38F8F89A19AA101979AA3E7
:1026E00089A389A19AA1009769F714C06BA17CA165
:1026F0008DA19EA10E944900DC01CB019AA389A370
:1027000089A19AA19E8F8D8F8D8D9E8D0197F1F756
:102710009E8F8D8F81E060E041E00E94080C81E097
:1027200061E040E00E94080C81E062E041E00E942C
:10273000080C81E063E041E00E94080C80E090E03A
:10274000A0E2B1E4898F9A8FAB8FBC8F698D7A8DAF
:102750008B8D9C8D20E030E04AEF54E40E941F02F4
:10276000DC01CB018D8B9E8BAF8BB88F6D897E8901
:102770008F89988D20E030E040E85FE30E942504D7
:1027800088232CF481E090E09C8B8B8B3FC06D897B
:102790007E898F89988D20E03FEF4FE757E40E94B4
:1027A000C50318164CF5698D7A8D8B8D9C8D20E0B4
:1027B00030E040E251E40E941F02DC01CB01BC0189
:1027C000CD010E944900DC01CB019C8B8B8B0FC09B
:1027D00088EC90E09A8B898B89899A890197F1F727
:1027E0009A8B898B8B899C8901979C8B8B8B8B898E
:1027F0009C89009769F714C06D897E898F89988DAF
:102800000E944900DC01CB019C8B8B8B8B899C89BE
:10281000988B8F878F8598890197F1F7988B8F8791
:1028200081E060E040E00E94080C81E061E041E06E
:102830000E94080C81E062E041E00E94080C81E007
:1028400063E041E00E94080C80E090E0A0E2B1E487
:102850008B879C87AD87BE876B857C858D859E85A4
:1028600020E030E04AEF54E40E941F02DC01CB017B
:102870008F839887A987BA876F81788589859A859C
:1028800020E030E040E85FE30E94250488232CF438
:1028900081E090E09E838D833FC06F81788589853C
:1028A0009A8520E03FEF4FE757E40E94C5031816D2
:1028B0004CF56B857C858D859E8520E030E040E27F
:1028C00051E40E941F02DC01CB01BC01CD010E943A
:1028D0004900DC01CB019E838D830FC088EC90E022
:1028E0009C838B838B819C810197F1F79C838B83E5
:1028F0008D819E8101979E838D838D819E8100971E
:1029000069F714C06F81788589859A850E9449008E
:10291000DC01CB019E838D838D819E819A83898387
:1029200089819A810197F1F79A83898389AD9AAD5C
:1029300001969AAF89AF8BAD9CAD00249695879593
:102940000794969587950794982F802D2DE230E077
:10295000B9010E946E1ECB019C0189AD9AAD821710
:10296000930708F4CBCDEC960FB6F894DEBF0FBEFC
:10297000CDBFCF91DF910895DF93CF9300D000D0EA
:10298000CDB7DEB79A838983E981FA81808161E0DE
:102990000E948B0DE981FA818181282F30E03C83F0
:1029A0002B838B819C81009761F02B813C812130AE
:1029B000310569F4E981FA8180816FEF0E94100E80
:1029C00006C0E981FA81808160E00E94100E0F90BC
:1029D0000F900F900F90CF91DF910895DF93CF93D9
:1029E00000D000D00F92CDB7DEB79A8389836B8376
:1029F000E981FA818181282F30E03D832C838C810D
:102A00009D81009731F02C813D812130310581F08D
:102A10001FC0E981FA8120818B81882F90E0FC0121
:102A2000E858FF4F9081822F692F0E94100E10C02E
:102A3000E981FA8120818B81882F90E0FC01E858A0
:102A4000FF4F8081982F9095822F692F0E94100E42
:102A50000F900F900F900F900F90CF91DF910895EE
:102A6000DF93CF9300D000D0CDB7DEB79A838983B0
:102A7000E981FA818181282F30E03C832B838B818F
:102A80009C81009761F02B813C812130310569F4F4
:102A9000E981FA8180816FEF0E94100E06C0E98102
:102AA000FA81808160E00E94100E0F900F900F90CD
:102AB0000F90CF91DF910895DF93CF9300D000D096
:102AC000CDB7DEB79A838983E981FA818081E98174
:102AD000FA819181692F41E00E94000BE981FA811E
:102AE0008281282F30E03C832B838B819C8100974F
:102AF00081F02B813C8121303105A9F4E981FA81F3
:102B00008081E981FA819181692F40E00E94080C5F
:102B10000AC0E981FA818081E981FA819181692F76
:102B200041E00E94080C0F900F900F900F90CF91F2
:102B3000DF910895DF93CF9300D000D0CDB7DEB7FB
:102B40009A838983E981FA818281282F30E03C834E
:102B50002B838B819C81009781F02B813C812130DC
:102B60003105A9F4E981FA818081E981FA819181B5
:102B7000692F41E00E94080C0AC0E981FA81808136
:102B8000E981FA819181692F40E00E94080C0F9041
:102B90000F900F900F90CF91DF910895DF93CF9317
:102BA00000D000D0CDB7DEB79A838983E981FA815E
:102BB0008281282F30E03C832B838B819C8100977E
:102BC00081F02B813C8121303105A9F4E981FA8122
:102BD0008081E981FA819181692F40E00E94080C8F
:102BE0000AC0E981FA818081E981FA819181692FA6
:102BF00041E00E94080C0F900F900F900F90CF9122
:102C0000DF910895DF93CF93CDB7DEB783E060E027
:102C100040E00E94000B83E061E040E00E94000B76
:102C200083E062E040E00E94000B83E063E040E06C
:102C30000E94000B83E060E041E00E94080C83E00A
:102C400061E041E00E94080C83E062E041E00E9404
:102C5000080C83E063E041E00E94080C83E064E03C
:102C600041E00E94000B83E065E041E00E94000B20
:102C700083E066E041E00E94000B83E067E041E012
:102C80000E94000B83E064E041E00E94080C83E0B6
:102C900065E041E00E94080C83E066E041E00E94AC
:102CA000080C83E067E041E00E94080CCF91DF91BF
:102CB0000895DF93CF93CDB7DEB762970FB6F89440
:102CC000DEBF0FBECDBF8FEF8A8B84E0888BB7C08D
:102CD00083E0688940E00E94080C1F86A4C083E05E
:102CE0006F850E94100D898B8989882309F098C00F
:102CF00080E090E0A8E4B2E48B879C87AD87BE8734
:102D00006B857C858D859E8520E030E04AEF54E41C
:102D10000E941F02DC01CB018F839887A987BA87A5
:102D20006F81788589859A8520E030E040E85FE30F
:102D30000E94250488232CF481E090E09E838D83FB
:102D40003FC06F81788589859A8520E03FEF4FE706
:102D500057E40E94C50318164CF56B857C858D855C
:102D60009E8520E030E040E251E40E941F02DC0139
:102D7000CB01BC01CD010E944900DC01CB019E8347
:102D80008D830FC088EC90E09C838B838B819C812A
:102D90000197F1F79C838B838D819E8101979E83A0
:102DA0008D838D819E81009769F714C06F8178852E
:102DB00089859A850E944900DC01CB019E838D8321
:102DC0008D819E819A83898389819A810197F1F708
:102DD0009A83898383E06F850E94100D898B89898E
:102DE0008823D9F48F85482F50E08889882F90E078
:102DF0009C0124503040CA01880F991F880F991FE9
:102E0000820F931FFC01E859FF4F80818A8B05C018
:102E100083E06F850E94100D898B89898823C1F317
:102E20008F858F5F8F878F85843008F458CF83E03C
:102E3000688941E00E94080C88898F5F888B8889A7
:102E4000883008F445CF8A8962960FB6F894DEBFC1
:102E50000FBECDBFCF91DF9108950F931F93DF93E6
:102E6000CF93CDB7DEB7CC54D0400FB6F894DEBFC9
:102E70000FBECDBF81E061E00E948B0D82E060E07B
:102E800041E00E94000B82E061E041E00E94000B03
:102E900082E062E041E00E94000BFE01E75BFF4F31
:102EA00080E090E0A0E2B2E480839183A283B383C8
:102EB0008E010B5B1F4FFE01E75BFF4F608171814D
:102EC0008281938120E030E04AEF54E40E941F02A7
:102ED000DC01CB01F80180839183A283B383FE01DF
:102EE000EB5BFF4F608171818281938120E030E054
:102EF00040E85FE30E942504882344F4FE01ED5B73
:102F0000FF4F81E090E09183808364C0FE01EB5B22
:102F1000FF4F608171818281938120E03FEF4FE715
:102F200057E40E94C50318160CF043C0FE01E75B8E
:102F3000FF4F608171818281938120E030E040E227
:102F400051E40E941F02DC01CB018E010D5B1F4F7B
:102F5000BC01CD010E944900DC01CB01F801918345
:102F600080831FC0FE01EF5BFF4F88EC90E09183F0
:102F70008083FE01EF5BFF4F808191810197F1F724
:102F8000FE01EF5BFF4F91838083DE01AD5BBF4F9E
:102F9000FE01ED5BFF4F80819181019711969C931B
:102FA0008E93FE01ED5BFF4F808191810097D1F6FA
:102FB00024C08E010D5B1F4FFE01EB5BFF4F608154
:102FC0007181828193810E944900DC01CB01F8016B
:102FD00091838083FE01ED5BFF4F80819181FE0133
:102FE000FF9691838083FE01FF96808191810197F6
:102FF000F1F7FE01FF969183808388E30E94031A14
:1030000080E090E0A8E4B2E48BAF9CAFADAFBEAF80
:103010006BAD7CAD8DAD9EAD2BEA3AEA4AE250E451
:103020000E941F02DC01CB018FAB98AFA9AFBAAFF2
:103030006FA978AD89AD9AAD20E030E040E85FE35C
:103040000E94250488231CF481E08EAB91C06FA9F7
:1030500078AD89AD9AAD20E030E04FE753E40E94AF
:10306000C50318160CF07BC06BAD7CAD8DAD9EAD6D
:1030700020E030E04AE754E40E941903DC01CB0170
:103080008AAB9BABACABBDAB6AA97BA98CA99DA954
:1030900020E030E04AEF54E40E941F02DC01CB0143
:1030A0008EA79FA7A8ABB9AB6EA57FA588A999A944
:1030B00020E030E040E85FE30E94250488232CF400
:1030C00081E090E09DA78CA73FC06EA57FA588A951
:1030D00099A920E03FEF4FE757E40E94C503181677
:1030E0004CF56AA97BA98CA99DA920E030E040E2BB
:1030F00051E40E941F02DC01CB01BC01CD010E9402
:103100004900DC01CB019DA78CA70FC088EC90E0A3
:103110009BA78AA78AA59BA50197F1F79BA78AA7DA
:103120008CA59DA501979DA78CA78CA59DA5009713
:1031300069F724C06EA57FA588A999A90E944900B6
:10314000DC01CB019DA78CA78CA59DA599A788A77D
:1031500088A599A50197F1F799A788A70FC06FA92E
:1031600078AD89AD9AAD0E944900DC01CB018EABF0
:103170008EA98FA38FA18A95F1F78FA38CE00E946F
:10318000031A80E090E0A8E4B2E48BA39CA3ADA373
:10319000BEA36BA17CA18DA19EA12BEA3AEA4AE2D3
:1031A00050E40E941F02DC01CB018F8F98A3A9A3DA
:1031B000BAA36F8D78A189A19AA120E030E040E800
:1031C0005FE30E94250488231CF481E08E8F91C068
:1031D0006F8D78A189A19AA120E030E04FE753E4F8
:1031E0000E94C50318160CF07BC06BA17CA18DA1B9
:1031F0009EA120E030E04AE754E40E941903DC017C
:10320000CB018A8F9B8FAC8FBD8F6A8D7B8D8C8D10
:103210009D8D20E030E04AEF54E40E941F02DC0163
:10322000CB018E8B9F8BA88FB98F6E897F89888DFC
:10323000998D20E030E040E85FE30E942504882378
:103240002CF481E090E09D8B8C8B3FC06E897F8950
:10325000888D998D20E03FEF4FE757E40E94C5032A
:1032600018164CF56A8D7B8D8C8D9D8D20E030E09D
:1032700040E251E40E941F02DC01CB01BC01CD0100
:103280000E944900DC01CB019D8B8C8B0FC088EC28
:1032900090E09B8B8A8B8A899B890197F1F79B8BA6
:1032A0008A8B8C899D8901979D8B8C8B8C899D89BC
:1032B000009769F724C06E897F89888D998D0E9457
:1032C0004900DC01CB019D8B8C8B8C899D89998B6E
:1032D000888B888999890197F1F7998B888B0FC022
:1032E0006F8D78A189A19AA10E944900DC01CB01D0
:1032F0008E8F8E8D8F878F858A95F1F78F8781E0EE
:103300000E94031A80E090E0A0E0B0E48B879C87E5
:10331000AD87BE876B857C858D859E8520E030E0FE
:103320004AEF54E40E941F02DC01CB018F8398878F
:10333000A987BA876F81788589859A8520E030E0F2
:1033400040E85FE30E94250488232CF481E090E0AC
:103350009E838D833FC06F81788589859A8520E023
:103360003FEF4FE757E40E94C50318164CF56B85F5
:103370007C858D859E8520E030E040E251E40E940E
:103380001F02DC01CB01BC01CD010E944900DC0120
:10339000CB019E838D830FC088EC90E09C838B8350
:1033A0008B819C810197F1F79C838B838D819E811A
:1033B00001979E838D838D819E81009769F714C04C
:1033C0006F81788589859A850E944900DC01CB014F
:1033D0009E838D838D819E819A83898389819A8141
:1033E0000197F1F79A83898386E00E94031AC45BF0
:1033F000DF4F0FB6F894DEBF0FBECDBFCF91DF9188
:103400001F910F910895DF93CF93CDB7DEB7A797A4
:103410000FB6F894DEBF0FBECDBF8FA382E060E091
:1034200040E00E94080C82E061E040E00E94080C4D
:1034300081E06FA10E94100E82E062E041E00E94F4
:10344000080C80E090E0A0E8BFE38BA39CA3ADA3B1
:10345000BEA36BA17CA18DA19EA12BEA3AEA4AE210
:1034600050E40E941F02DC01CB018F8F98A3A9A317
:10347000BAA36F8D78A189A19AA120E030E040E83D
:103480005FE30E94250488231CF481E08E8F91C0A5
:103490006F8D78A189A19AA120E030E04FE753E435
:1034A0000E94C50318160CF07BC06BA17CA18DA1F6
:1034B0009EA120E030E04AE754E40E941903DC01B9
:1034C000CB018A8F9B8FAC8FBD8F6A8D7B8D8C8D4E
:1034D0009D8D20E030E04AEF54E40E941F02DC01A1
:1034E000CB018E8B9F8BA88FB98F6E897F89888D3A
:1034F000998D20E030E040E85FE30E9425048823B6
:103500002CF481E090E09D8B8C8B3FC06E897F898D
:10351000888D998D20E03FEF4FE757E40E94C50367
:1035200018164CF56A8D7B8D8C8D9D8D20E030E0DA
:1035300040E251E40E941F02DC01CB01BC01CD013D
:103540000E944900DC01CB019D8B8C8B0FC088EC65
:1035500090E09B8B8A8B8A899B890197F1F79B8BE3
:103560008A8B8C899D8901979D8B8C8B8C899D89F9
:10357000009769F724C06E897F89888D998D0E9494
:103580004900DC01CB019D8B8C8B8C899D89998BAB
:10359000888B888999890197F1F7998B888B0FC05F
:1035A0006F8D78A189A19AA10E944900DC01CB010D
:1035B0008E8F8E8D8F878F858A95F1F78F8782E02A
:1035C00062E040E00E94080C80E090E0A0E0B0E4FF
:1035D0008B879C87AD87BE876B857C858D859E8517
:1035E00020E030E04AEF54E40E941F02DC01CB01EE
:1035F0008F839887A987BA876F81788589859A850F
:1036000020E030E040E85FE30E94250488232CF4AA
:1036100081E090E09E838D833FC06F8178858985AE
:103620009A8520E03FEF4FE757E40E94C503181644
:103630004CF56B857C858D859E8520E030E040E2F1
:1036400051E40E941F02DC01CB01BC01CD010E94AC
:103650004900DC01CB019E838D830FC088EC90E094
:103660009C838B838B819C810197F1F79C838B8357
:103670008D819E8101979E838D838D819E81009790
:1036800069F714C06F81788589859A850E94490001
:10369000DC01CB019E838D838D819E819A838983FA
:1036A00089819A810197F1F79A838983A7960FB64A
:1036B000F894DEBF0FBECDBFCF91DF910895DF93A9
:1036C000CF93CDB7DEB769970FB6F894DEBF0FBEC4
:1036D000CDBF898F82E060E041E00E94080C82E06B
:1036E00061E040E00E94080C81E0698D0E94100EAC
:1036F00082E062E041E00E94080C80E090E0A0E8F7
:10370000BFE38D8B9E8BAF8BB88F6D897E898F8940
:10371000988D2BEA3AEA4AE250E40E941F02DC014B
:10372000CB01898B9A8BAB8BBC8B69897A898B890E
:103730009C8920E030E040E85FE30E942504882374
:103740001CF481E0888B91C069897A898B899C8976
:1037500020E030E04FE753E40E94C50318160CF058
:103760007BC06D897E898F89988D20E030E04AE7A3
:1037700054E40E941903DC01CB018C879D87AE873E
:10378000BF876C857D858E859F8520E030E04AEF80
:1037900054E40E941F02DC01CB0188879987AA8725
:1037A000BB87688579858A859B8520E030E040E885
:1037B0005FE30E94250488232CF481E090E09F833E
:1037C0008E833FC0688579858A859B8520E03FEFA1
:1037D0004FE757E40E94C50318164CF56C857D85AC
:1037E0008E859F8520E030E040E251E40E941F0278
:1037F000DC01CB01BC01CD010E944900DC01CB0101
:103800009F838E830FC088EC90E09D838C838C8196
:103810009D810197F1F79D838C838E819F81019714
:103820009F838E838E819F81009769F724C068856E
:1038300079858A859B850E944900DC01CB019F83A5
:103840008E838E819F819B838A838A819B8101974E
:10385000F1F79B838A830FC069897A898B899C8958
:103860000E944900DC01CB01888B8889898389818A
:103870008A95F1F7898382E062E040E00E94080CBB
:1038800069960FB6F894DEBF0FBECDBFCF91DF9122
:103890000895DF93CF9300D000D00F92CDB7DEB75D
:1038A0008B837D836C838B81882F90E00896880FB3
:1038B000991F880F991F880F991F8A838A810E94F8
:1038C000031A19820EC08981282F30E08C819D81D6
:1038D000FC01E20FF31F80810E945F1B89818F5FD3
:1038E00089838981883078F38B810E945F1B0F90D8
:1038F0000F900F900F900F90CF91DF910895DF936D
:10390000CF93CDB7DEB727970FB6F894DEBF0FBEC3
:10391000CDBF8B837D836C834E832F838B81882FD8
:1039200090E00896880F991F880F991F880F991F9C
:103930008A838A810E94031A19820EC08981282FE6
:1039400030E08C819D81FC01E20FF31F80810E9499
:103950005F1B89818F5F89838981883078F38B81B0
:103960000E945F1B8E816F810E94C21C8B810E940E
:103970005F1B27960FB6F894DEBF0FBECDBFCF9169
:10398000DF910895DF93CF9300D000D0CDB7DEB79D
:1039900089836A838981282F30E03C832B838B8144
:1039A0009C818130910531F02B813C8122303105A1
:1039B00031F009C08A8181580E94031A04C08A81AB
:1039C00081540E94031A0F900F900F900F90CF9187
:1039D000DF910895DF93CF9300D000D0CDB7DEB74D
:1039E0009B838A836C8319820EC08981282F30E0E3
:1039F0008A819B81FC01E20FF31F80810E945F1B83
:103A000089818F5F898399818C81981758F4898186
:103A1000282F30E08A819B81FC01E20FF31F808117
:103A2000882319F70F900F900F900F90CF91DF918F
:103A30000895DF93CF93CDB7DEB727970FB6F894ED
:103A4000DEBF0FBECDBF9F838E831D821C8281E0AF
:103A500090E09B838A8319828E819F81009721F455
:103A600080E30E945F1BCBC08E819F8199230CF065
:103A700068C08DE20E945F1B8E819F819095819529
:103A80009F4F9D838C8318C08C819D812AE030E0FC
:103A9000B9010E946E1ECB019D838C838A819B811C
:103AA0009C01220F331FC901880F991F880F991F8E
:103AB000820F931F9B838A838C819D81009721F7BE
:103AC0008E819F81909581959F4F9D838C838A8164
:103AD0009B812AE030E0B9010E946E1ECB019B83DE
:103AE0008A832AC08C819D812A813B81B9010E94F1
:103AF0006E1ECB0189838981805D0E945F1B898155
:103B0000282F30E08A819B81A901489F9001499F1D
:103B1000300D589F300D11248C819D81821B930B99
:103B20009D838C838A819B812AE030E0B9010E94C9
:103B30006E1ECB019B838A838A819B81009791F6BD
:103B40005EC08E819F819D838C8318C08C819D81F6
:103B50002AE030E0B9010E946E1ECB019D838C8368
:103B60008A819B819C01220F331FC901880F991FF5
:103B7000880F991F820F931F9B838A838C819D815D
:103B8000009721F78E819F819D838C838A819B8101
:103B90002AE030E0B9010E946E1ECB019B838A832C
:103BA0002AC08C819D812A813B81B9010E946E1EB1
:103BB000CB0189838981805D0E945F1B8981282FC9
:103BC00030E08A819B81A901489F9001499F300D77
:103BD000589F300D11248C819D81821B930B9D83F6
:103BE0008C838A819B812AE030E0B9010E946E1E9D
:103BF000CB019B838A838A819B81009791F62796CC
:103C00000FB6F894DEBF0FBECDBFCF91DF91089500
:103C1000DF93CF93CDB7DEB7809196008F5F80930F
:103C20009600809196009AE0692F0E94621E809310
:103C30009700809196009AE0692F0E94621E892F5A
:103C400080939800CF91DF910895DF93CF9300D0B8
:103C500000D0CDB7DEB70E94F608198281E08A83D2
:103C600082E08B8381E08C83CE0101960E94BC149C
:103C7000CE0103960E94BC14CE01019660E00E9422
:103C8000EE14CE01039660E00E94EE1482E061E043
:103C90000E94120982E00E94110A28E03EE182E0BF
:103CA000B9010E947F0A20919700CE010196622FF0
:103CB0000E94EE1420919800CE010396622F0E947C
:103CC000EE14F1CF991B79E004C0991F961708F004
:103CD000961B881F7A95C9F780950895AA1BBB1B70
:103CE00051E107C0AA1FBB1FA617B70710F0A61BFC
:103CF000B70B881F991F5A95A9F780959095BC011D
:103D0000CD0108952F923F924F925F926F927F92D2
:103D10008F929F92AF92BF92CF92DF92EF92FF92DB
:103D20000F931F93CF93DF93CDB7DEB7CA1BDB0B87
:103D30000FB6F894DEBF0FBECDBF09942A8839882C
:103D400048885F846E847D848C849B84AA84B98433
:103D5000C884DF80EE80FD800C811B81AA81B9813F
:103D6000CE0FD11D0FB6F894DEBF0FBECDBFED0153
:063D70000895F894FFCF56
:103D760000000000000000003738392F3435362A9D
:103D86003132332D2E303D2B3F065B4F666D7D075E
:0C3D96007F6F3F065B4F666D7D077F6FFF
:00000001FF
